:020000020000FC
:0200000045C0F9
:10008C0000E10EBF0FEF0DBF222401E0009398009A
:10009C0000EA0093990008E000939A000EE00093A8
:1000AC009D0008EC01BB03EF02BB0FEF07BB00E0A8
:1000BC0008BB0AE000936A0005E00ABF03E309BF2E
:1000CC00789400B30E3F59F000B30D3F89F019E15D
:1000DC0018D0F7CF00919B0005FFFCCF08950F932C
:1000EC00F9DF03E300939C0005E508BB0F9108952D
:1000FC000F93F0DF03E300939C000AEA08BB0F9117
:10010C0008951F932F933F9330EE2DEE2A95F1F720
:10011C003A95D9F71A95C1F73F912F911F910895F0
:00000001FF
