:020000020000FC
:0200000045C0F9
:080004005BD018956CD0189533
:10008C0000E10EBF0FEF0DBF222400EF07BB00E015
:10009C0008BB00E001BB00E302BB00E000936A0078
:1000AC0000E00ABF03E009BF789400E608BBFDCF6F
:1000BC000F931F930FB70F93F89400E008BB12E354
:1000CC001DD000E208BB12E319D00F910FBF1F9196
:1000DC000F91789408950F931F930FB70F93F89483
:1000EC0000E008BB12E30AD000E408BB12E306D020
:1000FC000F910FBF1F910F917894089530EE2DEE54
:0E010C002A95F1F73A95D9F71A95C1F708959B
:00000001FF
