:100000000C9446000C945D000C945D000C945D0013
:100010000C945D000C945D000C945D000C945D00EC
:100020000C945D000C945D000C945D000C945D00DC
:100030000C945D000C945D000C945D000C945D00CC
:100040000C945D000C945D000C945D000C945D00BC
:100050000C945D000C945D000C945D000C945D00AC
:100060000C945D000C945D000C945D000C945D009C
:100070000C945D000C945D000C945D000C945D008C
:100080000C945D000C945D000C945D0011241FBE67
:10009000CFEFD0E1DEBFCDBF11E0A0E0B1E0E6E4FC
:1000A000F1E000E00BBF02C007900D92A030B10755
:1000B000D9F70E945F000C94A1000C94000080EF1F
:1000C00087BB88BB11BA60E620E931E050E240E42A
:1000D00068BB80B383708130C1F480E29EE4F90193
:1000E0003197F1F70197D9F718BA80E197E2F90152
:1000F0003197F1F70197D9F758BB88E893E1F901F7
:100100003197F1F70197D9F7E3CF80B3837082304D
:10011000F9F680E29EE4F9013197F1F70197D9F7FA
:1001200018BA80E197E2F9013197F1F70197D9F711
:1001300048BB88E893E1F9013197F1F70197D9F7C6
:06014000C7CFF894FFCFC9
:00000001FF
