:020000020000FC
:0200000045C0F9
:080004002AD1189566D0189569
:04007800E4D0189523
:04002800D6D0189581
:10008C0000E10EBF0FEF0DBF01E00093980000EAF6
:10009C000093990000E900939A000EE000939D00F4
:1000AC0008EF01BB03EF02BB0BE005BD00E301BF92
:1000BC0000E807BF00E0402E66240FE000936A00C2
:1000CC0000E00ABF03E009BFECD00FEF07BB00E074
:1000DC0008BB90E08FE1EEE5F2E0C0E0D1E070E12A
:1000EC00059109937A95E1F71ED1EEE6F2E0C0E1B5
:1000FC00D1E070E1059109937A95E1F724D1F89458
:10010C0000B30F3B51F000B30F3D39F000B30F3784
:10011C0021F000B30F3E09F0F2CF78948F3199F0B3
:10012C002CD0803009F0F9CFF894EEE9F2E0C0E081
:10013C00D1E070E1059109937A95E1F7F4D000B321
:10014C000F3719F2FCCFF89490E0EEE7F2E0C0E044
:10015C00D1E070E1059109937A95E1F7E4D0EEE8EE
:10016C00F2E0C0E1D1E070E1059109937A95E1F7F5
:10017C00EAD000EF08BB7894D0CFF8947F933F93EC
:10018C002F934F92BF93AF930F930FB70F93A0E0A2
:10019C00B2E023E000E20D932A95E9F7092FA0E0E5
:1001AC00B2E017D173E032E02DE00D91FFD0239532
:1001BC007A95D9F70F910FBF0F91AF91BF914F90D7
:1001CC002F913F917F91789408957F933F932F9334
:1001DC004F92BF93AF930F930FB70F936394A1F408
:1001EC00A0E0B2E023E000E20D932A95E9F78A95AE
:1001FC00082FA0E0B2E0EDD073E031E02DE00D91DE
:10020C00D5D023957A95D9F70F910FBF0F91AF9158
:10021C00BF914F902F913F917F9108959F938F9312
:10022C0080EE9DEE9A95F1F78A95D9F77A95C1F7FC
:10023C008F919F91089508BB03D0033341F008C000
:10024C0000919B0007FFFCCF00919C0008959395B3
:10025C000895507265737320627574746F6E2034D8
:10026C002D386F6E20506F7274442032207374617D
:10027C00727454696D65206C6566743A2020202078
:10028C00202053636F72653A2020202020202020EC
:10029C00202047472E507265737338746F726573E4
:1002AC0065740F930FB70F931F9300E008BB0FEF0C
:1002BC0007BB00E002BB00E001BB00E00093620062
:1002CC0008E00093610000E50DB901E00EB900E80B
:1002DC0005BF02E400936D0000E800936C0000E0A1
:1002EC000BB908E10AB906E00093950000E0009311
:1002FC00900007E609B906E01AEFBFD00A95E1F7BE
:10030C0008E397D008E095D001E093D006E091D0B7
:10031C000CE08FD028D01F910F910FBF0F91089533
:10032C0002D011D008950F93EF93FF932F933F9327
:10033C00E0E0F1E030E86BD076D03F912F91FF9167
:10034C00EF910F9108950F93EF93FF932F933F939A
:10035C00E0E1F1E030EC5BD066D03F912F91FF9162
:10036C00EF910F91089502D011D008950F933F9300
:10037C002F93EF93FF9330E84AD0E0E0F1E04CD0BC
:10038C00FF91EF912F913F910F9108950F933F9310
:10039C002F93EF93FF9330EC3AD0E0E1F1E03CD0B7
:1003AC00FF91EF912F913F910F9108950F933F93F0
:1003BC002F93283250F4313011F430E803C032302E
:1003CC0021F430EC320F23D042D02F913F910F917A
:1003DC0008950F936F935F93BF93AF93043618F008
:1003EC0023E0139607C00A3018F022E0129602C0E0
:1003FC00119621E04AD000E3060F0E93052F003032
:10040C00C9F7AF91BF915F916F910F9108950F93C1
:10041C00032F0FD00F91089500E220E1019317D024
:10042C002A95E1F7089520E1019111D02A95E1F781
:10043C0008954F931F9340E013D00F9302E01DECEF
:10044C001CD00A95E1F70F911F914F9108954F938E
:10045C001F9341E005D010E110D01F914F910895EA
:10046C004FB912E00AD00FB912E007D018E0109380
:10047C00620010E01093620008950F9309E40A954E
:10048C00F1F71A95D9F70F9108950F92502F5695B1
:10049C005695500F5695500F569556955695500F9C
:1004AC005695500F569556955695500F5695500F8C
:1004BC005695569556955695652F660F660F650F92
:1004CC00660F062E602F60196A3018F053956A502B
:0604DC00FBCF0F90089514
:00000001FF
