:020000020000FC
:0200000045C0F9
:10008C0000E10EBF0FEF0DBF222401E00093000131
:10009C0000E00093010101E00093030100E00093F4
:1000AC00040114D000910601009300010093030198
:1000BC0000910701009301010093040100910801D4
:1000CC0000930201009305012CD0FFCF3F924F9279
:1000DC001F920F922F92BF93AF93DF93CF93FF9307
:1000EC00EF931F932224C0E0D1E0E6E0F1E0A3E01F
:1000FC00B1E03D904990340C31923C904880341CD6
:10010C003192322C321C30821F91EF91FF91CF91A2
:10011C00DF91AF91BF912F900F901F904F903F9018
:10012C0008953F924F921F920F922F92BF93AF93CD
:10013C00DF93CF93FF93EF931F932F932224E6E04B
:10014C00F1E0219221922192219221922192C3E0FD
:10015C00D1E0E6E0F1E013E0A0E0B1E023E03D9077
:10016C004880349C31904190030C141C3080321C1C
:10017C0030821292029231962A9589F73297219603
:10018C001A9551F72F911F91EF91FF91CF91DF911C
:10019C00AF91BF912F900F901F904F903F9008956B
:1001AC003F924F921F920F922F92BF93AF93DF9378
:1001BC00CF93FF93EF931F932F932224C3E0D1E0AF
:1001CC00E6E0F1E012E0A0E0B1E022E03D904880F2
:1001DC00349C31904190030C141C3080321C3082C2
:1001EC001292029231962A9589F7319721961A9597
:1001FC0051F72F911F91EF91FF91CF91DF91AF911B
:10020C00BF912F900F901F904F903F90089508959D
:00000001FF
