:100000000C9446000C945D000C945D000C945D0013
:100010000C945D000C945D000C945D000C945D00EC
:100020000C945D000C945D000C945D000C945D00DC
:100030000C945D000C945D000C945D000C945D00CC
:100040000C945D000C945D000C945D000C945D00BC
:100050000C945D000C945D000C945D000C945D00AC
:100060000C945D000C945D000C945D000C945D009C
:100070000C945D000C945D000C945D000C945D008C
:100080000C945D000C945D000C945D0011241FBE67
:10009000CFEFD0E1DEBFCDBF11E0A0E0B1E0EAE2FA
:1000A000F1E000E00BBF02C007900D92A030B10755
:1000B000D9F70E945F000C9493000C94000080EF2D
:1000C00087BB88BB11BA60E620E931E050E440E22A
:1000D00068BB80B38370813089F418BA80E197E2FD
:1000E000F9013197F1F70197D9F758BB80E197E211
:1000F000F9013197F1F70197D9F7EACF80B383700F
:10010000823031F718BA80E197E2F9013197F1F7BF
:100110000197D9F748BB80E197E2F9013197F1F7F0
:0A0120000197D9F7D5CFF894FFCF6F
:00000001FF
