:020000020000FC
:0200000045C0F9
:10008C0000E10EBF0FEF0DBF222408E001BB07EF0C
:10009C0002BB00E007BB00E008BB01E00093980046
:1000AC0000EA0093990008E000939A000EE0009398
:1000BC009D0000B30F3B79F000B30F3DB9F000B3D6
:1000CC000F37F9F000B30F3E39F1F3CF00919B00DD
:1000DC0005FFFCCF08950F93F9DF03E600939C0016
:1000EC00F5DF00EB00939C000F91E3CF0F9303E639
:1000FC0000939C00EBDF00E800939C00E7DF0F917E
:10010C00D8CF0F9303E600939C00E0DF00E9009347
:10011C009C00DCDF0F91CDCF0F9303E600939C0086
:10012C00D5DF00EA00939C00D1DF0F91C2CF0F9373
:10013C0003E600939C00CADF08EC00939C00C6DF2A
:10014C000F91B7CF0F9303E600939C00BFDF08EF2E
:10015C0000939C00BBDF0F91ACCF1F932F933F9369
:10016C0030EE2DEE2A95F1F73A95D9F71A95C1F79D
:08017C003F912F911F9108959E
:00000001FF
