:020000020000FC
:0200000045C0F9
:08000400A2D01895B3D01895A5
:040078002ED01895D9
:10008C0000E10EBF0FEF0DBF222401E0009398009A
:10009C0000EA0093990008E900939A000EE000939F
:1000AC009D0000EF07BB00E008BB08EF01BB03EFAE
:1000BC0002BB00E000936A0000E00ABF03E009BF46
:1000CC0070E080E6789488BBFECF90919C0097FD01
:1000DC0005C0933661F09535A9F00BC0990F983F88
:1000EC0021F060FD892F662704C06130E1F761E0E3
:1000FC0000C008950F930091550000939C005D9BE8
:10010C00FECF08950F9346E17395733031F000E9FB
:10011C0008BB3BD00F9148BBD6CF00E908BBFDCF45
:10012C0000E608BBD0CF00E008BBCDCF00E208BB97
:10013C00CACF00E408BBC7CF00E908BBC4CF0F93FC
:10014C001F930FB70F93F89400E008BB12E31DD078
:10015C0000E208BB12E319D00F910FBF1F910F9152
:10016C00789408950F931F930FB70F93F89400E0B2
:10017C0008BB12E30AD000E408BB12E306D00F91CF
:10018C000FBF1F910F917894089530EE2DEE2A95A4
:0C019C00F1F73A95D9F71A95C1F70895CC
:00000001FF
